S014000069526F626F742046696E616C2E7372656397
S1130000C6C00000E2C00000E0C00000DEC0000086
S1130010DCC00000DAC00000D8C00000D6C0000078
S1130020D4C0000084C40000D0C00000A3C40000F9
S1130030CCC00000CAC00000C8C00000C6C0000098
S1130040C4C00000C2C00000C0C00000BEC00000A8
S1130050BCC00000BAC00000B8C00000B6C00000B8
S1130060B4C00000B2C00000B0C00000AEC00000C8
S1130070ACC00000AAC00000A8C00000A6C00000D8
S1130080A4C00000A2C00000A0C000006E616E0009
S1130090696E660000407A10F35A00A0724E180987
S11300A00010A5D4E80000E87648170000E40B54DB
S11300B0020000CA9A3B000000E1F50500008096AA
S11300C09800000040420F000000A08601000000DC
S11300D0102700000000E803000000006400000096
S11300E000000A00000000000100000000002C765F
S11300F0D888DC674F0823DFC1DFAE59E1B1B7967A
S1130100E5E3E453C63AE651997696E8E6C28426D6
S1130110EB898C9B62ED407C6FFCEFBC9C9F40F2B2
S1130120BAA56FA5F490055A2AF75C936B6CF9672E
S11301306DC11BFCE0E40D47FEF520E6B500D0EDF3
S1130140902E0300943577050080841E080000205B
S11301504E0A000000C80C333333330F986E1283F9
S11301601141EF8D2114893BE65516CFFEE6DB18CD
S1130170D1844B381BF77C1D901DA4BBE424203292
S113018084725E228100C9F124ECA1E53D2711248B
S11301901FBECFEFD0E1DEBFCDBF11E0A0E0B1E0E4
S11301A0E6EEFFE100E00BBF02C007900D92A63B14
S11301B0B107D9F722E0A6EBB1E001C01D92A1314D
S11301C0B207E1F703D00C94F10F1ACF2F923F92AC
S11301D04F925F926F927F928F929F92AF92BF9253
S11301E0CF92DF92EF92FF920F931F93CF93DF93FF
S11301F0CDB7DEB7C756D1090FB6F894DEBF0FBE30
S1130200CDBF14D339D3B1D32FD1A8D32DD4F7D1A3
S1130210A8969FAF8EAFA897DDD280E590E005D475
S11302200F2EF0E5CF2ED12CF02D0F2EF6E08F2ED1
S1130230F1E09F2EF02DAA24A394B12CAC0EBD1E88
S11302400F2EF3E06F2E712CF02D512C412C3A2CF3
S11302502B2CFCD2A6968FAFA697833509F043C00A
S113026038C082E011D3E80EF91E84E190E049D34E
S113027001501109B1F79701ABEABAEA0E94860C62
S1130280969587950DD3162F072FF82EE92EAED30A
S11302909F938F937F936F93EF92FF920F931F938C
S11302A0DF92CF929F928F92BF92AF920E942D0FB6
S11302B0832D922DD1D282E0C80ED11CC601B5D3B4
S11302C00FB6F894DEBF0FBECDBF95EBC916D104AF
S11302D024F48301E52CF42CC4CF8AE590E0A5D363
S11302E0C12CD12C5FC0A6968FADA697833709F099
S11302F04CC08DE290E099D30F2EFDE2CF2ED12C8D
S1130300F02D39C082E0C0D2080F191F84E190E0BB
S1130310F8D291E0E91AF108A9F79801ABEABAEA30
S11303200E94860C96958795BBD2162F072FF82E20
S1130330E92E5CD39F938F937F936F93EF92FF92F9
S11303400F931F93DF92CF929F928F92BF92AF929F
S11303500E942D0F832D922D7FD282E0C80ED11CD6
S1130360C60163D30FB6F894DEBF0FBECDBF99E8C4
S1130370C916D10421F07301052D142DC3CF8AE5CC
S113038090E053D3C12CD12C1AC0A6968FADA6975A
S1130390863641F464E670E0A8968EAD9FADA897CA
S11303A071D41AC0A6969FADA697923741F46DE218
S11303B070E0A8968EAD9FADA8979ED34ACFA6961F
S11303C08FADA6978C3641F46DE270E0A8968EADA1
S11303D09FADA89791D33DCFA6969FADA697913593
S11303E009F037CFA8968EAD9FADA8970ED1C95905
S11303F0DF4F0FB6F894DEBF0FBECDBFDF91CF91B4
S11304001F910F91FF90EF90DF90CF90BF90AF902E
S11304109F908F907F906F905F904F903F902F9020
S11304200895DE9A90E06DD2DE988BB3807F8BBB0B
S11304300895CF93C82FDC988BB39C2F92959F700F
S1130440892B8BBB82E0EDDF8BB3CF70C82BCBBB8A
S113045082E0E7DFDC9ACF91089581E0EADF81E072
S113046090E04FC282E0E5CF8FEF8ABB83E08BBB85
S1130470DE9A81E090E045D2DE9885E090E041D2BA
S1130480DE9A81E090E03DD2DE98DE9A81E090E051
S113049038D2DE9882E08BBB81E0C3DF8BB38BBBA9
S11304A081E0BFDF8BB38E608BBB81E0BADF8BB39F
S11304B08BBB81E0B6DF8BB386608BBB81E0B1DFA1
S11304C08BB38BBB81E0ADDFD89A81E0AADFDC9AE5
S11304D0C9CF80ECAECF84E9ACCF84EDAACFCF9363
S11304E0C82F8BB39C2F92959F70892B8BBB81E077
S11304F098DF8BB3CF70C82BCBBB81E092DFCF9159
S11305000895CF92DF92EF92FF920F931F93CF93B0
S1130510DF93CDB7DEB7C155D1090FB6F894DEBF6E
S11305200FBECDBFFE01E45AFF4F419151912E2FD2
S11305303F2F61E570E0CE0101960E945B0FBE0182
S11305406F5F7F4F86EB91E00E94E60E282F392FD4
S1130550232B09F444C0BE016F5F7F4F86EB91E00B
S11305600E94EF0E7ADFCC24C394D12CCC0EDD1E76
S113057000E010E00F2EF4E1EF2EF12CF02D27C057
S11305808A3051F4C801B7010E94730C9701281BEB
S1130590390B020F131F03C0A2DF0F5F1F4FC801E7
S11305A0B7010E94730C892B91F4C801B7010E9412
S11305B0730C6230710541F06330710539F06130BC
S11305C0710529F486DF03C086DF01C086DFF601EA
S11305D081916F01882319F0003511058CF2CF5AEF
S11305E0DF4F0FB6F894DEBF0FBECDBFDF91CF91C2
S11305F01F910F91FF90EF90DF90CF90089564E3E7
S113060070E081E090E00C94A60C0C945D0D0895CC
S1130610EBE9F0E0908195FFFDCF80939C00089575
S11306200F931F93CF93DF93182F092FC62FD72F24
S113063081E9EEDF802FECDF812FEADF8D2FE8DF09
S11306408C2FE6DFDF91CF911F910F9108950F93C7
S11306501F93CF93DF93082F162FD42FC22F8BE82D
S1130660D7DF112341F061E070E0011102C060E0C6
S113067070E0CB0102C080E090E0CADF8D2FC8DFBC
S11306808C2FC6DFDF91CF911F910F910895EBE975
S1130690F0E080818823ECF780919C000895EF922C
S11306A0FF920F931F93CF93DF937C0180919B0064
S11306B0882344F4ACE9B0E0EBE9F0E08C9180816C
S11306C08823E4F38EE8A4DF86E0A2DF87010C5CD4
S11306D01F4FE701DCDF8993C017D107D9F7F70172
S11306E0948580E02585820F911D95878487968562
S11306F080E02785820F911D97878687918980E006
S11307002289820F911D928B818B938980E02489A9
S1130710820F911D948B838B968980E02789820FA9
S1130720911D978B868B908D80E0218D820F911D7A
S1130730918F808F928D80E0238D820F911D938FF6
S1130740828F948D80E0258D820F911D958F848FEB
S1130750968D80E0278D820F911D978F868F90A1B3
S113076080E021A1820F911D91A380A392A180E03A
S113077023A1820F911D93A382A342A550E031A52A
S113078020E0240F351F36A325A390A980E0840F11
S1130790951F95A784A792A980E023A9820F911D94
S11307A097A786A794A980E025A9820F911D91ABF4
S11307B080AB96A980E027A9820F911D93AB82ABF1
S11307C083E290E09ED0DF91CF911F910F91FF9033
S11307D0EF9008950F931F93CF93DF93EC0109E9F2
S11307E010E080E1F801808388E180939A0086E03C
S11307F080939D0080E80CDF81E80ADF88E008DF51
S113080084E690E07ED081E2F801808384E800DF12
S11308102FEF47E061E081E01ADFCE0140DFCE0137
S11308203EDFDF91CF911F910F91089510929000B8
S113083083E389B982E08BB98EE08093950088E1E7
S11308408AB908955D9BFECF8CB908955F9B02C061
S11308508CB1089580E00895CF93DF93C82FD92FEA
S11308608991882311F0EEDFFBCF8AE0EBDF8DE086
S1130870E9DFDF91CF910895379A86B1876086B911
S113088087B1806C87B9089597B18F71982B97B908
S1130890369A3699FECF24B135B1822F932F08951D
S11308A0BC0180E090E0A0D32AE939E949E750E4AB
S11308B029D420E030E040EA50E49ED29B01AC0110
S11308C060E070EB83E397E4FBC210920C02109299
S11308D00B02811106C08BE085BD87B7806887BF96
S11308E007C0813029F489E085BD87B7806887BF58
S11308F07894089587B78F7787BF85B58F7785BD3F
S11309000895CF93DF93EC018AEF83BD10920C021C
S113091010920B0280E0D9DF20910B0230910C027F
S11309202C173D07C8F3E6DFDF91CF9108951F929E
S11309300F920FB60F9211248F939F9380910B0205
S113094090910C02019690930C0280930B029F915C
S11309508F910F900FBE0F901F90189584B3807CD9
S113096084BB85B38F6385BB08951FBC84EC8EBDA7
S113097017BE08951F920F920FB60F9211242F9352
S11309803F938F939F9386B597B590930A02809374
S11309900902209107023091080281E090E0232BA4
S11309A011F080E090E090930802809307029F91F9
S11309B08F913F912F910F900FBE0F901F9018951C
S11309C08C9A949A81E090E09CDF94988C98089596
S11309D0BC0180E090E008D322EF32ED4DE85EE305
S11309E091D320E53DE84FEF51E405C2E9DF80E211
S11309F087BF8091070290910802892BD1F784E880
S1130A008EBD2091090230910A02809107029091D3
S1130A100802892BD1F384EC8EBD80910902909158
S1130A200A0217BE821B930BD3CFBC01882777FD24
S1130A308095982FDBD22BE33AEA4AE15CE362D358
S1130A4028E431EE4AEF5EE3D7D120E030E04AE714
S1130A5053E458D39DD2615071097093850060931B
S1130A60840084E190E04DCF83EC99E0909387007B
S1130A708093860080E591E09093850080938400C4
S1130A8083E280938B008BE180938A00149A08950B
S1130A90EF92FF920F931F93CF93DF938C01D62F86
S1130AA0C72F68E37FEF88E39FEFBADDED2EFC2EBE
S1130AB0EE0CFF1CC701880F991F880F991FE80EC1
S1130AC0F91E1E141F0464F4C0E0D0E0C801E7DD81
S1130AD0F80184859585C81BD90BCE15DF05B4F3C1
S1130AE060E070E080E090E09BDDDF91CF911F91AA
S1130AF00F91FF90EF9008956F927F928F929F9243
S1130B00AF92BF92CF92DF92EF92FF920F931F9317
S1130B10CF93DF93CDB7DEB764970FB6F894DEBFFB
S1130B200FBECDBF6C017B0168EC70E088E39FEFE2
S1130B3077DD47018CE0881A9108181419042CF504
S1130B4000E010E00F2EF3E16F2EF1E07F2EF02D88
S1130B50AA24A394B12CAC0EBD1EC601A0DDF601DF
S1130B6086859785081B190BFF92EF927F926F92EF
S1130B70BF92AF920E942D0F0F900F900F900F9085
S1130B800F900F900815190544F360E070E080E0C1
S1130B9090E046DD64960FB6F894DEBF0FBECDBF7D
S1130BA0DF91CF911F910F91FF90EF90DF90CF9045
S1130BB0BF90AF909F908F907F906F9008956F92A9
S1130BC07F928F929F92AF92BF92CF92DF92EF92D9
S1130BD0FF920F931F93CF93DF93CDB7DEB7649744
S1130BE00FB6F894DEBF0FBECDBF6C017B0168E386
S1130BF07FEF88EC90E014DD47018CE0881A9108BF
S1130C00181419042CF500E010E00F2EFFE26F2EEB
S1130C10F1E07F2EF02DAA24A394B12CAC0EBD1EBE
S1130C20C6013DDDF60186859785080F191FFF92E1
S1130C30EF927F926F92BF92AF920E942D0F0F900E
S1130C400F900F900F900F900F900815190544F313
S1130C5060E070E080E090E0E3DC64960FB6F89426
S1130C60DEBF0FBECDBFDF91CF911F910F91FF90DB
S1130C70EF90DF90CF90BF90AF909F908F907F9038
S1130C806F900895EF92FF920F931F93CF93DF938A
S1130C90CDB7DEB764970FB6F894DEBF0FBECDBFF5
S1130CA08C01E62EF72E66E970E086E990E0B8DC68
S1130CB08E2D9F2D880F991F9C01220F331F220F09
S1130CC0331F820F931F181619060CF06BC0C8014E
S1130CD0E6DCF801408141FF12C060E070E080E092
S1130CE090E09EDC6AE070E0C801D2DE6DE270E064
S1130CF0C80102DF82E591E0AFDD81E06FC040FF13
S1130D0012C060E070E080E090E08ADC6AE070E0AD
S1130D10C801BEDE6DE270E0C80151DF88E691E0F3
S1130D209BDD82E05BC0F801868D978D8732F2E00F
S1130D309F0738F4F80120A131A1233CF1E03F07DB
S1130D4088F08FE791E09F938F93DBDB60E070E0A6
S1130D5080E090E065DC8FE791E07EDD0F900F90FE
S1130D6083E03CC04C7171F40A9760F02A3031057D
S1130D7048F0F801848D958D0A9720F082A193A103
S1130D800A9758F58DE891E09F938F93BADB6AE058
S1130D9070E0C8017DDE8DE891E05EDD0F900F907C
S1130DA084E01CC060E070E080E090E039DC1F92D9
S1130DB01F9281EA91E09F938F938E010F5F1F4FE3
S1130DC01F930F930E942D0FC80146DD0F900F90C3
S1130DD00F900F900F900F9001C080E064960FB6B3
S1130DE0F894DEBF0FBECDBFDF91CF911F910F915D
S1130DF0FF90EF9008955058BB27AA270ED048C102
S1130E0039D130F03ED120F031F49F3F11F41EF47B
S1130E102EC10EF4E095E7FB24C1E92F4AD180F3FB
S1130E20BA17620773078407950718F071F49EF5E3
S1130E3062C10EF4E0950B2EBA2FA02D0B01B9015F
S1130E4090010C01CA01A0011124FF27591B99F03C
S1130E50593F50F4503E68F11A16F040A22F232F48
S1130E60342F4427585FF3CF469537952795A79598
S1130E70F0405395C9F77EF41F16BA0B620B730B3F
S1130E80840BBAF09150A1F0FF0FBB1F661F771FB0
S1130E90881FC2F70EC0BA0F621F731F841F48F465
S1130EA0879577956795B795F7959E3F08F0B3CFEB
S1130EB09395880F08F09927EE0F979587950895D5
S1130EC00CD0E6C0DED040F0D5D030F021F45F3F46
S1130ED019F0C7C0511110C1CAC0EBD098F39923BF
S1130EE0C9F35523B1F3951B550BBB27AA276217EA
S1130EF07307840738F09F5F5F4F220F331F441F2F
S1130F00AA1FA9F333D00E2E3AF0E0E830D0915066
S1130F105040E695001CCAF729D0FE2F27D0660F53
S1130F20771F881FBB1F261737074807AB07B0E892
S1130F3009F0BB0B802DBF01FF2793585F4F2AF0A8
S1130F409E3F510568F08DC0D7C05F3FECF3983EDB
S1130F50DCF3869577956795B795F7959F5FC9F705
S1130F60880F911D9695879597F90895E1E0660F8E
S1130F70771F881FBB1F621773078407BA0720F007
S1130F80621B730B840BBA0BEE1F88F7E095089570
S1130F9098D088F09F5790F0B92F9927B751A0F0B7
S1130FA0D1F0660F771F881F991F1AF0BA95C9F7F9
S1130FB012C0B13081F09FD0B1E008959CC0672F7A
S1130FC0782F8827B85F39F0B93FCCF386957795A9
S1130FD06795B395D9F73EF4909580957095619592
S1130FE07F4F8F4F9F4F0895E89409C097FB3EF4BD
S1130FF090958095709561957F4F8F4F9F4F992362
S1131000A9F0F92F96E9BB279395F69587957795DF
S11310106795B795F111F8CFFAF4BB0F11F460FF9F
S11310201BC06F5F7F4F8F4F9F4F16C0882311F0F7
S113103096E911C0772321F09EE8872F762F05C00B
S1131040662371F096E8862F70E060E02AF09A95A6
S1131050660F771F881FDAF7880F9695879597F99B
S1131060089597F99F6780E870E060E008959FEF26
S113107080EC089500240A9416161706180609062B
S1131080089500240A9412161306140605060895FA
S1131090092E0394000C11F4882352F0BB0F40F482
S11310A0BF2B11F460FF04C06F5F7F4F8F4F9F4FC2
S11310B0089557FD9058440F551F59F05F3F71F044
S11310C04795880F97FB991F61F09F3F79F08795AB
S11310D00895121613061406551FF2CF4695F1DF34
S11310E008C0161617061806991FF1CF86957105C4
S11310F0610508940895E894BB2766277727CB01F8
S113110097F908950BD0C4CFB5DF28F0BADF18F0F3
S1131110952309F0A6CFABCF1124EECFCADFA0F3FD
S1131120959FD1F3950F50E0551F629FF001729F78
S1131130BB27F00DB11D639FAA27F00DB11DAA1F97
S1131140649F6627B00DA11D661F829F2227B00DE4
S1131150A11D621F739FB00DA11D621F839FA00D6F
S1131160611D221F749F3327A00D611D231F849FBF
S1131170600D211D822F762F6A2F11249F57504016
S11311808AF0E1F088234AF0EE0FFF1FBB1F661FB1
S1131190771F881F91505040A9F79E3F510570F06A
S11311A060CFAACF5F3FECF3983EDCF3869577954A
S11311B06795B795F795E7959F5FC1F7FE2B880F65
S11311C0911D9695879597F908952F923F924F9286
S11311D05F926F927F928F929F92AF92BF92CF92C3
S11311E0DF92EF92FF920F931F93CF93DF93CDB7CC
S11311F0DEB762970FB6F894DEBF0FBECDBF7C0199
S11312001B016A01FC0117821682838181FD03C0E0
S11312104EC3650105C088248394912C8C0E9D1EB9
S1131220F7019381F10193FD859193FF81911F0152
S1131230882309F438C3853239F493FD859193FFEB
S113124081911F01853229F4B70190E0DAD5560166
S1131250E0CF712C612C20E02032A8F48B3261F0B5
S113126028F4803251F0833271F40BC08D3239F09E
S1131270803349F4216028C02260246025C028609E
S113128023C0206121C027FD27C0382F30533A30B6
S113129078F426FF06C0FAE07F9E300D1124732EE9
S11312A013C04AE0649E300D1124632E20620CC0EA
S11312B08E3221F426FDF7C2206406C08C3611F468
S11312C0206802C0883641F4F10193FD859193FFB3
S11312D081911F018111C0CF982F9554933018F438
S11312E02061805E06C0982F9556933008F094C113
S11312F02F7E26FD02C016E0712EBFE35B2E522224
S1131300853619F4F0E45F2A07C0863619F440E8FC
S1131310542A02C071107A9457FE07C05BE3571534
S113132048F0472C439427E00DC087E0871530F040
S1131330272D07C027E0ACE34A2E04C027E0F7E0DE
S11313407F2E412C560194E0A90EB11CF601608158
S1131350718182819381042DA4014ED48C01498131
S11313604C8740FF02C043FF07C051FC08C052FE37
S113137009C0E0E2DE2E07C07DE2D72E04C06BE296
S1131380D62E01C0D12C8C858C7089F1DD2011F012
S113139084E001C083E0861510F0612C0AC0681A4D
S11313A053FC07C0B70180E290E02BD56A94D1F7D3
S11313B0F4CFDD2021F0B7018D2D90E022D55C859E
S11313C053FD03C000E910E00BC00CE810E008C0B6
S11313D051108052B70190E014D50F5F1F4F02C027
S11313E080E15822F80184918111F2CF59C257FE4D
S11313F00EC0400E4C8544FF04C08A81813309F439
S11314004A9414144CF558E0541548F12CC056FC79
S11314102AC0872D90E08017910744F00C3F8FEF8E
S1131420180724F090E8592A01C07A94772049F0EB
S1131430E2E0F0E0EC0FFD1FE70DF11D8081803349
S1131440A1F357FE10C0472C4394872D90E0081752
S1131450190744F4701A07C04424439404C058E0A4
S1131460452E01C0712C57FE07C0101611063CF41E
S113147098012F5F3F4F05C025E030E002C021E016
S113148030E0DD2011F02F5F3F4F772031F0472D02
S113149050E04F5F5F4F240F351F462D50E0241757
S11314A0350714F4621A01C0612C852D897041F44A
S11314B005C0B70180E290E0A4D46A946110F9CF2A
S11314C0DD2021F0B7018D2D90E09BD453FC08C0A2
S11314D005C0B70180E390E094D46A946110F9CF19
S11314E057FE54C0680117FF02C0C12CD12C20E064
S11314F030E0A801441951095E874D8728014C1832
S11315005D08480C591C872D90E044275527481B3B
S1131510590B588B4F875FEFC516D50641F4B701B9
S11315208EE290E02A8B398B6CD439892A890C1588
S11315301D0554F04D855E854C155D052CF4F201B6
S1131540E20FF31F818101C080E351E0C51AD10885
S11315502F5F3F4F4F855889C416D50644F0B70115
S113156090E02A8B398B4DD42A893989D4CFC0167F
S1131570D10649F49A81963328F4953321F45C8595
S113158054FD01C081E3B70190E044C08A818133F6
S113159019F04C854F7E4C87B70190E032D471101E
S11315A005C054FE14C085E490E013C0B7018EE278
S11315B090E027D442E0D42EF401ED0DF11DD39434
S11315C0B701808190E01DD47A94B1F7EACF85E623
S11315D090E0B70116D417FD06C00115110541F4BA
S11315E05C8554FF05C01195019511098DE201C078
S11315F08BE2B70190E005D480E303C08F5F0A500B
S113160011090A301105D4F7B70190E0FAD3B701F4
S1131610C801C096F6D344C1833631F0833781F0D4
S1131620833509F05AC023C0560182E0A80EB11CCC
S1131630F60180818983CC24C394D12C840113C006
S11316405601F2E0AF0EB11CF6010081118126FFB4
S113165003C0672D70E002C06FEF7FEFC8012A8BD3
S1131660C5D36C012A899FE7592E522216C0560110
S1131670F2E0AF0EB11CF6010081118126FF03C018
S1131680672D70E002C06FEF7FEFC8012A8B8CD307
S11316906C012A8980E8582E522A53FC1AC005C0CE
S11316A0B70180E290E0ADD36A94862D90E0C8162D
S11316B0D906B0F30EC0F80157FC859157FE81910D
S11316C08F01B70190E09DD361106A94F1E0CF1AC5
S11316D0D108C114D10479F7E3C0843611F08936F6
S11316E049F5560127FF09C044E0A40EB11CF601D8
S11316F060817181828193810AC0F2E0AF0EB11CD6
S1131700F60160817181882777FD8095982F122FCB
S11317101F7697FF08C090958095709561957F4FCF
S11317208F4F9F4F10682AE030E0A401FCD3D82EDD
S1131730D8183FC0122F853721F41F7E2AE030E0ED
S11317401FC0197F8F36A1F020F4883509F0ABC093
S11317500BC0803721F0883709F0A5C001C01061A3
S113176014FF09C0146007C024FF08C0166006C037
S113177028E030E005C020E130E002C020E132E0A2
S1131780560117FF09C0F4E0AF0EB11CF6016081E9
S113179071818281938108C0F2E0AF0EB11CF60121
S11317A06081718180E090E0A401BDD3D82ED81867
S11317B01F7716FF0BC0212F2E7FD71450F414FF70
S11317C00AC012FD08C0212F2E7E05C00D2D212F29
S11317D003C00D2D01C0072D24FF0CC0FE01ED0D2B
S11317E0F11D8081803311F4297E08C022FF05C0D9
S11317F00E5F04C0822F867809F00F5F23FD13C0AB
S113180020FF0EC07D2C061558F4760C701A062D98
S113181007C0B70180E290E02A8BF3D20F5F2A89D8
S11318200615B8F304C0061510F4601A01C0612C43
S113183024FF11C0B70180E390E02A8BE2D22A8909
S113184022FF1CC021FF03C088E590E002C088E7A6
S113185090E0B7010CC0822F867881F021FD02C090
S113186080E201C08BE227FD8DE2B70190E0C9D28E
S113187005C0B70180E390E0C4D27A94D714C8F3CA
S1131880DA94F401ED0DF11DB701808190E0B9D235
S1131890D110F6CF05C0B70180E290E0B2D26A94CD
S11318A06110F9CFB6CCF7012681378102C02FEF42
S11318B03FEFC90162960FB6F894DEBF0FBECDBFED
S11318C0DF91CF911F910F91FF90EF90DF90CF9018
S11318D0BF90AF909F908F907F906F905F904F904C
S11318E03F902F90089597FB072E16F4009406D08E
S11318F077FD08D017D007FC05D03EF4909581956C
S11319009F4F0895709561957F4F0895A29FB001F0
S1131910B39FC001A39F01D0B29F700D811D1124FC
S1131920911D0895AA1BBB1B51E107C0AA1FBB1F31
S1131930A617B70710F0A61BB70B881F991F5A9557
S1131940A9F780959095BC01CD0108950F931F933D
S1131950CF93DF93689F8001699F100D789F100DCE
S11319601124C8010FD0C82FD92F209729F0A8011E
S113197060E070E08C2F23D2CE01DF91CF911F91D4
S11319800F9108950F931F93CF93DF9382309105A6
S113199010F482E090E0E0910F02F091100220E058
S11319A030E0C0E0D0E023C040815181481759079E
S11319B0A8F04817590761F482819381209719F0A0
S11319C09B838A832EC09093100280930F0229C0B8
S11319D02115310529F04217530710F0A90102C05F
S11319E0BE01DF0102811381EF019A01F8013097F2
S11319F0D9F62115310509F1281B390B243031059D
S1131A0090F412968D919C9113976115710521F0B4
S1131A10FB019383828304C09093100280930F028E
S1131A20FD01329644C0FD01E20FF31F81939193AF
S1131A30225031092D933C933AC020910D023091EC
S1131A400E02232B41F420910201309103013093C3
S1131A500E0220930D022091000130910101211505
S1131A60310541F42DB73EB7409104015091050171
S1131A70241B350BE0910D02F0910E02E217F307DF
S1131A80A0F42E1B3F0B2817390778F0AC014E5FEA
S1131A905F4F2417350748F04E0F5F1F50930E0217
S1131AA040930D028193919302C0E0E0F0E0CF01F6
S1131AB0DF91CF911F910F910895EF92FF920F93B1
S1131AC01F93CF93DF93009709F48FC0DC01129723
S1131AD013961C921E921297E0900F02F09010023F
S1131AE0E114F10489F42D913C911197280F391FC9
S1131AF080910D0290910E028217930789F5B0939D
S1131B000E02A0930D0271C0E70120E030E001C095
S1131B10EA01CA17DB0738F44A815B819E0141154B
S1131B205105B1F722C0BC0162507109FB01D38396
S1131B30C28300811181AC01400F511F4C175D0716
S1131B4061F448815981400F511F4E5F5F4F5183AB
S1131B5040834A815B81538342832115310529F4F3
S1131B60B0931002A0930F0240C0F901B383A28383
S1131B70E90169917991C60FD71FAC17BD0779F4B4
S1131B80DC015E914E91460F571F4E5F5F4F5183AC
S1131B90408312968D919C91139793838283A0E046
S1131BA0B0E002C0D7017C01F701828193810097E4
S1131BB0C9F7C701029620813181820F931F2091BA
S1131BC00D0230910E022817390779F4109729F481
S1131BD01092100210920F0204C013961C921E92CF
S1131BE01297F0920E02E0920D02DF91CF911F91B5
S1131BF00F91FF90EF900895283008F027E03327E5
S1131C00DA01990F311D87FD916000966105710518
S1131C1039F432602E5F3D9330E32A95E1F708955D
S1131C209F3F30F080387105610509F03C5F3C5FEF
S1131C303D93913008F08068911DDF93CF931F93FB
S1131C400F93FF92EF92192F987F9695E92F96950F
S1131C509695E90FFF27E251FF4F99273327EE248A
S1131C60FF24A701E70105900894079428F4360F90
S1131C70E71EF81E491F511D660F771F881F991F05
S1131C800694A1F70590079428F4E70EF81E491F5F
S1131C90561FC11D770F881F991F661F0694A1F751
S1131CA00590079428F4F80E491F561FC71FD11D2D
S1131CB0880F991F661F771F0694A1F70590079454
S1131CC020F4490F561FC71FD81F990F661F771F8F
S1131CD0881F0694A9F784911095177041F0D69542
S1131CE0C79557954795F794E7941A95C1F7E4E992
S1131CF0F0E0689415901591359165919591059052
S1131D007FE27395E118F10A430B560BC90BD00916
S1131D10C0F7E10CF11E431F561FC91FD01D7EF4EE
S1131D20703311F48A95E6CFE894015030F0080F2F
S1131D300AF40027021708F4202F2395022F7A3380
S1131D4028F079E37D932A95E9F710C07D932A95CD
S1131D5089F6069497956795379517951794E11822
S1131D60F10A430B560BC90BD00998F023957E91C9
S1131D7073957A3308F070E37C932013B8F77E915F
S1131D8070617D9330F0839571E37D9370E32A95C0
S1131D90E1F71124EF90FF900F911F91CF91DF9104
S1131DA0992787FD90950895FC0105906150704036
S1131DB00110D8F7809590958E0F9F1F0895DC0130
S1131DC001C06D9341505040E0F70895FB01DC01E0
S1131DD08D91019080190110D9F3990B0895FB019D
S1131DE0DC0101900D920020E1F70895FC0161509F
S1131DF0704001900110D8F7809590958E0F9F1F29
S1131E0008950F931F93CF93DF938C01EB018B8184
S1131E1081FD03C00FEF1FEF1AC082FF0DC02E819A
S1131E203F818C819D812817390764F4E881F98109
S1131E300193F983E88306C0E885F985802F099525
S1131E40892B41F78E819F8101969F838E83C801E0
S1131E50DF91CF911F910F9108950F931F93CF930B
S1131E60DF93CDB7DEB72E970FB6F894DEBF0FBE63
S1131E70CDBF0D891E8986E08C831A8309838FEF79
S1131E809FE79E838D83CE014996AC016F89788D3F
S1131E90CE0101969AD9EF81F885E00FF11F1082E7
S1131EA02E960FB6F894DEBF0FBECDBFDF91CF9153
S1131EB01F910F9108950F931F93CF93DF93CDB785
S1131EC0DEB72E970FB6F894DEBF0FBECDBF8C01E0
S1131ED0CA0146E04C831A83098377FF02C060E09D
S1131EE070E8615071097E836D83A901BC01CE0144
S1131EF001966BD94D815E8157FD0AC02F813885CB
S1131F00421753070CF49A01F801E20FF31F1082F1
S1131F102E960FB6F894DEBF0FBECDBFDF91CF91E2
S1131F201F910F910895FA01AA27283051F1203109
S1131F3081F1E8946F936E7F6E5F7F4F8F4F9F4F59
S1131F40AF4FB1E03ED0B4E03CD0670F781F891F9B
S1131F509A1FA11D680F791F8A1F911DA11D6A0F69
S1131F60711D811D911DA11D20D009F468943F911C
S1131F702AE0269F11243019305D3193DEF6CF011B
S1131F800895462F4770405D4193B3E00FD0C9F7E1
S1131F90F6CF462F4F70405D4A3318F0495D31FD4E
S1131FA04052419302D0A9F7EACFB4E0A6959795A1
S1131FB0879577956795BA95C9F700976105710577
S1131FC008959B01AC010A2E0694579547953795C1
S1131FD02795BA95C9F7620F731F841F951FA01D1B
S1091FE00895F894FFCF00
S1131FE6000011022000256420252E326620252EAD
S1131FF63266005475726E656420256620646567D2
S11320067265657320636C6F636B776973650054DF
S113201675726E65642025662064656772656573EE
S113202620636F756E746572636C6F636B77697327
S113203665004C6566742042756D70657220547235
S113204669676765726564005269676874204275DA
S11320566D70657220547269676765726564004CB9
S1132066696E6520446574656374656400436C69D0
S113207666662045646765204465746563746564B3
S1132086004D6F7665642025662063656E74696D00
S10920966574657273001D
S9030000FC
