S014000069526F626F742046696E616C2E7372656397
S113000045C0000061C000005FC000005DC000008A
S11300105BC0000059C0000057C0000055C000007C
S113002053C0000045C400004FC0000064C4000079
S11300304BC0000049C0000047C0000045C000009C
S113004043C0000041C000003FC000003DC00000AC
S11300503BC0000039C0000037C0000035C00000BC
S113006033C0000031C000002FC000002DC00000CC
S11300702BC0000029C0000027C0000025C00000DC
S113008023C0000021C000001FC0000011241FBEB7
S1130090CFEFD0E1DEBFCDBF11E0A0E0B1E0E0EDF5
S11300A0FAE100E00BBF02C007900D92A63BB10736
S11300B0D9F722E0A6EBB1E001C01D92A131B2074D
S11300C0E1F703D00C94660D9BCF2F923F924F9291
S11300D05F926F927F928F929F92AF92BF92CF92D4
S11300E0DF92EF92FF920F931F93CF93DF93CDB7DD
S11300F0DEB7C956D1090FB6F894DEBF0FBECDBF27
S113010029D37BD3F3D349D1EAD36FD40ED2AA96A1
S11301109FAF8EAFAA97F2D280E590E047D40F2E1E
S1130120F0E5CF2ED12CF02D0F2EF6E08F2EF1E03E
S11301309F2EF02DAA24A394B12CAC0EBD1E0F2E1D
S1130140F3E06F2E712CF02D512C412C3A2C2B2CDA
S113015011D3182F0FD3A6968FAFA697812F90E0B7
S1130160C0970ED3A8969FAF8EAFA897A6968FADD3
S1130170A697833509F042C037C082E046D3E80E23
S1130180F91E84E190E07ED301501109B1F7970183
S1130190ABEABAEAEBD79695879543D3162F072F88
S11301A0F82EE92EE4D39F938F937F936F93EF926E
S11301B0FF920F931F93DF92CF929F928F92BF92E1
S11301C0AF920E94680A832D922D07D392E0C90E44
S11301D0D11CC601EBD30FB6F894DEBF0FBECDBF62
S11301E095EBC916D10424F48301E52CF42CC5CF76
S11301F08AE590E0DBD3C12CD12C63C0A6968FADE9
S1130200A697833709F04BC08DE290E0CFD30F2E31
S1130210FDE2CF2ED12CF02D38C082E0F6D2080FAB
S1130220191F84E190E02ED391E0E91AF108A9F7AF
S11302309801ABEABAEA9AD796958795F2D2162F27
S1130240072FF82EE92E93D39F938F937F936F9369
S1130250EF92FF920F931F93DF92CF929F928F9210
S1130260BF92AF920E94680A832D922DB6D282E08B
S1130270C80ED11CC6019AD30FB6F894DEBF0FBEC8
S1130280CDBF99E8C916D10421F07301052D142DB1
S1130290C4CF8AE590E08AD3C12CD12C24C0A69681
S11302A08FADA697863669F4A8968EAD9FADA897B4
S11302B00E942C0ABC01AA968EAD9FADAA97A1D428
S11302C024C0A6969FADA697923769F4A8968EADE2
S11302D09FADA8970E942C0ABC01AA968EAD9FAD33
S11302E0AA97CBD335CFA6968FADA6978C3669F453
S11302F0A8968EAD9FADA8970E942C0ABC01AA9621
S11303008EAD9FADAA97B9D323CFA6969FADA697DE
S1130310913509F01DCFAA968EAD9FADAA970AD14B
S1130320C759DF4F0FB6F894DEBF0FBECDBFDF91C4
S1130330CF911F910F91FF90EF90DF90CF90BF90DE
S1130340AF909F908F907F906F905F904F903F9071
S11303502F900895DE9A90E095D2DE988BB3807F3B
S11303608BBB0895CF93C82FDC988BB39C2F9295A9
S11303709F70892B8BBB82E0EDDF8BB3CF70C82BD2
S1130380CBBB82E0E7DFDC9ACF91089581E0EADF1E
S113039081E090E077C282E0E5CF8FEF8ABB83E013
S11303A08BBBDE9A81E090E06DD2DE9885E090E030
S11303B069D2DE9A81E090E065D2DE98DE9A81E02F
S11303C090E060D2DE9882E08BBB81E0C3DF8BB328
S11303D08BBB81E0BFDF8BB38E608BBB81E0BADF68
S11303E08BB38BBB81E0B6DF8BB386608BBB81E0C4
S11303F0B1DF8BB38BBB81E0ADDFD89A81E0AADF9C
S1130400DC9AC9CF80ECAECF84E9ACCF84EDAACF1F
S1130410CF93C82F8BB39C2F92959F70892B8BBB46
S113042081E098DF8BB3CF70C82BCBBB81E092DF28
S1130430CF910895CF92DF92EF92FF920F931F9383
S1130440CF93DF93CDB7DEB7C155D1090FB6F8947A
S1130450DEBF0FBECDBFFE01E45AFF4F4191519163
S11304602E2F3F2F61E570E0CE0101960E94960A7F
S1130470BE016F5F7F4F86EB91E00E94500A282FE8
S1130480392F232B09F441C0BE016F5F7F4F86EBE8
S113049091E00E94590A7ADFCC24C394D12CCC0E6B
S11304A0DD1E00E010E00F2EF4E1EF2EF12CF02D14
S11304B024C08A3049F4C801B70145D69701281BE6
S11304C0390B020F131F03C0A3DF0F5F1F4FC801B7
S11304D0B70139D6892B89F4C801B70134D6623003
S11304E0710541F06330710539F06130710529F40B
S11304F089DF03C089DF01C089DFF60181916F01C3
S1130500882319F000351105A4F2CF5ADF4F0FB636
S1130510F894DEBF0FBECDBFDF91CF911F910F9135
S1130520FF90EF90DF90CF90089564E370E081E056
S113053090E03CC6F2C60895EBE9F0E0908195FFA7
S1130540FDCF80939C0008950F931F93CF93DF9367
S1130550182F092FC62FD72F81E9EEDF802FECDF6C
S1130560812FEADF8D2FE8DF8C2FE6DFDF91CF913B
S11305701F910F9108950F931F93CF93DF93082F2B
S1130580162FD42FC22F8BE8D7DF112341F061E05F
S113059070E0011102C060E070E0CB0102C080E0B5
S11305A090E0CADF8D2FC8DF8C2FC6DFDF91CF919B
S11305B01F910F910895EBE9F0E080818823ECF717
S11305C080919C000895EF92FF920F931F93CF9315
S11305D0DF937C0180919B00882344F4ACE9B0E074
S11305E0EBE9F0E08C9180818823E4F38EE8A4DFCA
S11305F086E0A2DF87010C5C1F4FE701DCDF8993F3
S1130600C017D107D9F7F701948580E02585820FBB
S1130610911D95878487968580E02785820F911D9B
S113062097878687918980E02289820F911D928B1A
S1130630818B938980E02489820F911D948B838B15
S1130640968980E02789820F911D978B868B908DE8
S113065080E0218D820F911D918F808F928D80E09B
S1130660238D820F911D938F828F948D80E0258D31
S1130670820F911D958F848F968D80E0278D820F38
S1130680911D978F868F90A180E021A1820F911DEB
S113069091A380A392A180E023A1820F911D93A333
S11306A082A342A550E031A520E0240F351F36A3D4
S11306B025A390A980E0840F951F95A784A792A9EC
S11306C080E023A9820F911D97A786A794A980E0B3
S11306D025A9820F911D91AB80AB96A980E027A933
S11306E0820F911D93AB82AB83E290E0CBD0DF917C
S11306F0CF911F910F91FF90EF9008950F931F9347
S1130700CF93DF93EC0109E910E080E1F8018083E5
S113071088E180939A0086E080939D0080E80CDF56
S113072081E80ADF88E008DF84E690E0ABD081E26C
S1130730F801808384E800DF2FEF47E061E081E087
S11307401ADFCE0140DFCE013EDFDF91CF911F9152
S11307500F9108951092900081E289B982E08BB9DB
S11307608EE08093950088E18AB908955D9BFECF61
S11307708CB908955F9B02C08CB1089580E0089500
S1130780EF92FF920F931F93CF93DF93CDB7DEB712
S113079029970FB6F894DEBF0FBECDBF1816190601
S11307A06CF48E010F5F1F4F7801E80EF91EE2DF33
S11307B0F80181938F01EE15FF05C9F7CE0101966B
S11307C029960FB6F894DEBF0FBECDBFDF91CF914F
S11307D01F910F91FF90EF900895CF93DF93C82F4F
S11307E0D92F8991882311F0C1DFFBCF8AE0BEDFC6
S11307F08DE0BCDFDF91CF910895379A86B1876091
S113080086B987B1806C87B9089597B18F71982B99
S113081097B9369A3699FECF24B135B1822F932FEA
S11308200895BC0180E090E09DD32AE939E949E7C5
S113083050E426D420E030E040EA50E49BD29B010F
S1130840AC0160E070EB83E397E4F8C210920C0211
S113085010920B02811106C08BE085BD87B78068BA
S113086087BF07C0813029F489E085BD87B78068D8
S113087087BF7894089587B78F7787BF85B58F77BB
S113088085BD0895CF93DF93EC018AEF83BD109269
S11308900C0210920B0280E0D9DF20910B02309100
S11308A00C022C173D07C8F3E6DFDF91CF910895C2
S11308B01F920F920FB60F9211248F939F938091E2
S11308C00B0290910C02019690930C0280930B0200
S11308D09F918F910F900FBE0F901F90189584B326
S11308E0807C84BB85B38F6385BB08951FBC84EC77
S11308F08EBD17BE08951F920F920FB60F9211244A
S11309002F933F938F939F9386B597B590930A0245
S113091080930902209107023091080281E090E05F
S1130920232B11F080E090E090930802809307025B
S11309309F918F913F912F910F900FBE0F901F9019
S113094018958C9A949A81E090E09CDF94988C9806
S11309500895BC0180E090E005D322EF32ED4DE82C
S11309605EE38ED320E53DE84FEF51E402C2E9DFB8
S113097080E287BF8091070290910802892BD1F70A
S113098084E88EBD2091090230910A028091070209
S113099090910802892BD1F384EC8EBD80910902D9
S11309A090910A0217BE821B930BD3CFBC018827F8
S11309B077FD8095982FD8D22BE33AEA4AE15CE39D
S11309C05FD328E431EE4AEF5EE3D4D120E030E097
S11309D04AE753E455D39AD2615071097093850064
S11309E06093840084E190E04DCF83EC99E0909390
S11309F087008093860080E591E090938500809342
S1130A00840083E280938B008BE180938A00149AA4
S1130A100895EF92FF920F931F93CF93DF938C016E
S1130A20D62FC72F68E37FEF88E39FEF8DDDED2E90
S1130A30FC2EEE0CFF1CC701880F991F880F991F0D
S1130A40E80EF91E1E141F0464F4C0E0D0E0C801CF
S1130A50BADDF80184859585C81BD90BCE15DF0551
S1130A60B4F360E070E080E090E06EDDDF91CF9160
S1130A701F910F91FF90EF9008956F927F928F9244
S1130A809F92AF92BF92CF92DF92EF92FF920F9319
S1130A901F93CF93DF93CDB7DEB764970FB6F89467
S1130AA0DEBF0FBECDBF5C016B0168EC70E088E374
S1130AB09FEF4ADD46018CE0881A91081814190446
S1130AC024F5E12CF12C0F2EF3E16F2EF1E07F2EB3
S1130AD0F02D8E010F5F1F4FC50175DDF501868571
S1130AE09785E81AF90ADF92CF927F926F921F934B
S1130AF00F93EED4C80171DE0F900F900F900F90FA
S1130B000F900F90E814F9043CF360E070E080E08B
S1130B1090E01ADD64960FB6F894DEBF0FBECDBF29
S1130B20DF91CF911F910F91FF90EF90DF90CF90C5
S1130B30BF90AF909F908F907F906F9008956F9229
S1130B407F928F929F92AF92BF92CF92DF92EF9259
S1130B50FF920F931F93CF93DF93CDB7DEB76497C4
S1130B600FB6F894DEBF0FBECDBF5C016B0168E326
S1130B707FEF88EC90E0E8DC46018CE0881A91086D
S1130B801814190424F5E12CF12C0F2EFFE26F2E1A
S1130B90F1E07F2EF02D8E010F5F1F4FC50113DD95
S1130BA0F50186859785E80EF91EDF92CF927F9234
S1130BB06F921F930F938CD4C8010FDE0F900F9088
S1130BC00F900F900F900F90E814F9043CF360E03D
S1130BD070E080E090E0B8DC64960FB6F894DEBF75
S1130BE00FBECDBFDF91CF911F910F91FF90EF907A
S1130BF0DF90CF90BF90AF909F908F907F906F9039
S1130C000895EF92FF920F931F93CF93DF93CDB785
S1130C10DEB764970FB6F894DEBF0FBECDBF8C016C
S1130C20E62EF72E66E970E086E990E08DDC8E2DE5
S1130C309F2D880F991F9C01220F331F220F331FF2
S1130C40820F931F181619060CF06BC0C801BBDC89
S1130C50F801408141FF12C060E070E080E090E064
S1130C6073DC6AE070E0C801D4DE6DE270E0C801B4
S1130C7004DF82E591E0B1DD81E06EC040FF12C087
S1130C8060E070E080E090E05FDC6AE070E0C80162
S1130C90C0DE6DE270E0C80152DF88E691E09DDDC0
S1130CA082E05AC0F801868D978D8732F2E09F0763
S1130CB038F4F80120A131A1233CF1E03F0788F08A
S1130CC08FE791E09F938F93B5DB60E070E080E065
S1130CD090E03ADC8FE791E080DD0F900F9083E0A5
S1130CE03BC04C7171F40A9760F02A30310548F02A
S1130CF0F801848D958D0A9720F082A193A10A971B
S1130D0050F58DE891E09F938F9394DB6AE070E057
S1130D10C8017FDE8DE891E060DD0F900F9084E0E4
S1130D201BC060E070E080E090E00EDC1F921F9238
S1130D3081EA91E09F938F938E010F5F1F4F1F9362
S1130D400F93C6D3C80149DD0F900F900F900F90F9
S1130D500F900F9001C080E064960FB6F894DEBF48
S1130D600FBECDBFDF91CF911F910F91FF90EF90F8
S1130D7008955058BB27AA270ED048C139D130F066
S1130D803ED120F031F49F3F11F41EF42EC10EF435
S1130D90E095E7FB24C1E92F4AD180F3BA17620733
S1130DA073078407950718F071F49EF562C10EF479
S1130DB0E0950B2EBA2FA02D0B01B90190010C0167
S1130DC0CA01A0011124FF27591B99F0593F50F47F
S1130DD0503E68F11A16F040A22F232F342F4427D7
S1130DE0585FF3CF469537952795A795F0405395CF
S1130DF0C9F77EF41F16BA0B620B730B840BBAF09F
S1130E009150A1F0FF0FBB1F661F771F881FC2F709
S1130E100EC0BA0F621F731F841F48F4879577951D
S1130E206795B795F7959E3F08F0B3CF9395880FD4
S1130E3008F09927EE0F9795879508950CD0E6C092
S1130E40DED040F0D5D030F021F45F3F19F0C7C0B8
S1130E50511110C1CAC0EBD098F39923C9F355239B
S1130E60B1F3951B550BBB27AA2762177307840799
S1130E7038F09F5F5F4F220F331F441FAA1FA9F34F
S1130E8033D00E2E3AF0E0E830D091505040E69541
S1130E90001CCAF729D0FE2F27D0660F771F881FA2
S1130EA0BB1F261737074807AB07B0E809F0BB0B91
S1130EB0802DBF01FF2793585F4F2AF09E3F5105B5
S1130EC068F08DC0D7C05F3FECF3983EDCF38695A5
S1130ED077956795B795F7959F5FC9F7880F911D2B
S1130EE09695879597F90895E1E0660F771F881F17
S1130EF0BB1F621773078407BA0720F0621B730BCA
S1130F00840BBA0BEE1F88F7E095089598D088F00B
S1130F109F5790F0B92F9927B751A0F0D1F0660FE1
S1130F20771F881F991F1AF0BA95C9F712C0B130FC
S1130F3081F09FD0B1E008959CC0672F782F882757
S1130F40B85F39F0B93FCCF3869577956795B3953B
S1130F50D9F73EF490958095709561957F4F8F4FAA
S1130F609F4F0895E89409C097FB3EF490958095AF
S1130F70709561957F4F8F4F9F4F9923A9F0F92F5B
S1130F8096E9BB279395F695879577956795B795D9
S1130F90F111F8CFFAF4BB0F11F460FF1BC06F5FBF
S1130FA07F4F8F4F9F4F16C0882311F096E911C0D1
S1130FB0772321F09EE8872F762F05C0662371F0F2
S1130FC096E8862F70E060E02AF09A95660F771F06
S1130FD0881FDAF7880F9695879597F9089597F9FA
S1130FE09F6780E870E060E008959FEF80EC0895CB
S1130FF000240A94161617061806090608950024F4
S11310000A9412161306140605060895092E03946D
S1131010000C11F4882352F0BB0F40F4BF2B11F4E1
S113102060FF04C06F5F7F4F8F4F9F4F089557FD40
S11310309058440F551F59F05F3F71F04795880F42
S113104097FB991F61F09F3F79F0879508951216D9
S113105013061406551FF2CF4695F1DF08C0161685
S113106017061806991FF1CF869571056105089436
S11310700895E894BB2766277727CB0197F908954D
S11310800BD0C4CFB5DF28F0BADF18F0952309F0F0
S1131090A6CFABCF1124EECFCADFA0F3959FD1F337
S11310A0950F50E0551F629FF001729FBB27F00D12
S11310B0B11D639FAA27F00DB11DAA1F649F662767
S11310C0B00DA11D661F829F2227B00DA11D621FB6
S11310D0739FB00DA11D621F839FA00D611D221F70
S11310E0749F3327A00D611D231F849F600D211D54
S11310F0822F762F6A2F11249F5750408AF0E1F0F7
S113110088234AF0EE0FFF1FBB1F661F771F881F3F
S113111091505040A9F79E3F510570F060CFAACF7F
S11311205F3FECF3983EDCF3869577956795B7952A
S1131130F795E7959F5FC1F7FE2B880F911D969554
S1131140879597F9089597FB072E16F4009406D017
S113115077FD08D017D007FC05D03EF49095819513
S11311609F4F0895709561957F4F0895A29FB00198
S1131170B39FC001A39F01D0B29F700D811D1124A4
S1131180911D0895AA1BBB1B51E107C0AA1FBB1FD9
S1131190A617B70710F0A61BB70B881F991F5A95FF
S11311A0A9F780959095BC01CD0108950F931F93E5
S11311B0CF93DF93689F8001699F100D789F100D76
S11311C01124C8010FD0C82FD92F209729F0A801C6
S11311D060E070E08C2F5DD1CE01DF91CF911F9143
S11311E00F9108950F931F93CF93DF93823091054E
S11311F010F482E090E0E0910F02F091100220E000
S113120030E0C0E0D0E023C0408151814817590745
S1131210A8F04817590761F482819381209719F047
S11312209B838A832EC09093100280930F0229C05F
S11312302115310529F04217530710F0A90102C006
S1131240BE01DF0102811381EF019A01F801309799
S1131250D9F62115310509F1281B390B2430310544
S113126090F412968D919C9113976115710521F05C
S1131270FB019383828304C09093100280930F0236
S1131280FD01329644C0FD01E20FF31F8193919357
S1131290225031092D933C933AC020910D02309194
S11312A00E02232B41F4209102013091030130936B
S11312B00E0220930D0220910001309101012115AD
S11312C0310541F42DB73EB7409104015091050119
S11312D0241B350BE0910D02F0910E02E217F30787
S11312E0A0F42E1B3F0B2817390778F0AC014E5F92
S11312F05F4F2417350748F04E0F5F1F50930E02BF
S113130040930D028193919302C0E0E0F0E0CF019D
S1131310DF91CF911F910F910895EF92FF920F9358
S11313201F93CF93DF93009709F48FC0DC011297CA
S113133013961C921E921297E0900F02F0901002E6
S1131340E114F10489F42D913C911197280F391F70
S113135080910D0290910E028217930789F5B09344
S11313600E02A0930D0271C0E70120E030E001C03D
S1131370EA01CA17DB0738F44A815B819E014115F3
S11313805105B1F722C0BC0162507109FB01D3833E
S1131390C28300811181AC01400F511F4C175D07BE
S11313A061F448815981400F511F4E5F5F4F518353
S11313B040834A815B81538342832115310529F49B
S11313C0B0931002A0930F0240C0F901B383A2832B
S11313D0E90169917991C60FD71FAC17BD0779F45C
S11313E0DC015E914E91460F571F4E5F5F4F518354
S11313F0408312968D919C91139793838283A0E0EE
S1131400B0E002C0D7017C01F7018281938100978B
S1131410C9F7C701029620813181820F931F209161
S11314200D0230910E022817390779F4109729F428
S11314301092100210920F0204C013961C921E9276
S11314401297F0920E02E0920D02DF91CF911F915C
S11314500F91FF90EF900895FC0188279927E89455
S113146021912032E9F3293010F02E30C8F32B32C9
S113147039F02D3231F4689403C022D0820F911DCB
S1131480219120532A30C8F31EF4909581959F4FE3
S11314900895DC0101C06D9341505040E0F7089578
S11314A0FB01DC018D91019080190110D9F3990B96
S11314B00895FB01DC0101900D920020E1F70895ED
S11314C07AE0979F902D879F802D910D1124089588
S11314D00F931F93CF93DF93CDB7DEB72E970FB63D
S11314E0F894DEBF0FBECDBF0D891E8986E08C83C4
S11314F01A8309838FEF9FE79E838D83CE014996DC
S1131500AC016F89788DCE01019648D0EF81F885C2
S1131510E00FF11F10822E960FB6F894DEBF0FBEB7
S1131520CDBFDF91CF911F910F9108950F931F931A
S1131530CF93DF93CDB7DEB72E970FB6F894DEBF07
S11315400FBECDBF8C01CA0146E04C831A830983C8
S113155077FF02C060E070E8615071097E836D839B
S1131560A901BC01CE01019619D04D815E8157FDC0
S11315700AC02F813885421753070CF49A01F801E9
S1131580E20FF31F10822E960FB6F894DEBF0FBE43
S1131590CDBFDF91CF911F910F9108952F923F926C
S11315A04F925F926F927F928F929F92AF92BF926F
S11315B0CF92DF92EF92FF920F931F93CF93DF931B
S11315C0CDB7DEB72C970FB6F894DEBF0FBECDBFF4
S11315D07C016B018A01FC0117821682838181FFE1
S11315E0B9C188248394912C8C0E9D1EF70193819C
S11315F0F60193FD859193FF81916F01882309F48E
S1131600A5C1853239F493FD859193FF81916F01D2
S1131610853221F4B70190E0CFD1E8CF512C312CA1
S113162020E02032A8F48B3261F028F4803251F0AB
S1131630833271F40BC08D3239F0803349F4216068
S113164028C02260246025C0286023C0206121C0F6
S113165027FD27C0382F30533A3078F426FF06C0D0
S1131660FAE05F9E300D1124532E13C08AE0389E99
S1131670300D1124332E20620CC08E3221F426FD4D
S113168065C1206406C08C3611F4206802C0883617
S113169041F4F60193FD859193FF81916F018111CE
S11316A0C0CF982F9554933018F09052933028F46B
S11316B00C5F1F4FFFE3F9830DC0833631F083378E
S11316C071F0833509F05AC022C0F8018081898302
S11316D00E5F1F4F44244394512C540114C038010D
S11316E0F2E06F0E711CF801A080B18026FF03C0E8
S11316F0652D70E002C06FEF7FEFC5012C8751D1DB
S11317002C0183012C856FE7262E222217C0380175
S1131710F2E06F0E711CF801A080B18026FF03C0B7
S1131720652D70E002C06FEF7FEFC5012C872ED1CD
S11317302C012C8550E8252E222A830123FC1AC073
S113174005C0B70180E290E037D13A94832D90E050
S113175048165906B0F30EC0F50127FC859127FE03
S113176081915F01B70190E027D131103A94F1E003
S11317704F1A51084114510479F7E5C0843611F029
S1131780893639F5F80127FF07C0608171818281AC
S113179093810C5F1F4F08C060817181882777FD9A
S11317A08095982F0E5F1F4F4FE6B42EB22297FFFD
S11317B009C090958095709561957F4F8F4F9F4F8D
S11317C0F0E8BF2A2AE030E0A40122D1A82EA8180C
S11317D042C0853731F43FEEB32EB2222AE030E026
S11317E024C099EFB92EB2228F36B9F020F488358F
S11317F009F0ACC00DC0803721F0883709F0A6C0CD
S113180002C020E1B22AB4FE0BC084E0B82A08C0AA
S113181024FF09C0E6E0BE2A06C028E030E005C087
S113182020E130E002C020E132E0F801B7FE07C059
S113183060817181828193810C5F1F4F06C060813A
S1131840718180E090E00E5F1F4FA401E1D0A82ECB
S1131850A818FFE7BF22B6FE0BC02B2D2E7FA514C0
S113186050F4B4FE0AC0B2FC08C02B2D2E7E05C075
S11318707A2C2B2D03C07A2C01C0752C24FF0DC0AB
S1131880FE01EA0DF11D8081803311F4297E09C027
S113189022FF06C07394739404C0822F867809F0E3
S11318A0739423FD13C020FF0EC05A2C731458F4F4
S11318B0530C5718732C07C0B70180E290E02C87B3
S11318C07BD073942C857314B8F304C0731410F490
S11318D0371801C0312C24FF11C0B70180E390E018
S11318E02C876AD02C8522FF1CC021FF03C088E509
S11318F090E002C088E790E0B7010CC0822F8678A0
S113190081F021FD02C080E201C08BE227FD8DE25F
S1131910B70190E051D005C0B70180E390E04CD00E
S11319205A94A514C8F3AA94F401EA0DF11DB70161
S1131930808190E041D0A110F6CF05C0B70180E2CC
S113194090E03AD03A943110F9CF50CEF701268185
S1131950378102C02FEF3FEFC9012C960FB6F894E0
S1131960DEBF0FBECDBFDF91CF911F910F91FF90CE
S1131970EF90DF90CF90BF90AF909F908F907F902B
S11319806F905F904F903F902F900895FC010590C9
S1131990615070400110D8F7809590958E0F9F1F6D
S11319A00895FC016150704001900110D8F78095B2
S11319B090958E0F9F1F08950F931F93CF93DF93DE
S11319C08C01EB018B8181FD03C00FEF1FEF1AC067
S11319D082FF0DC02E813F818C819D81281739079C
S11319E064F4E881F9810193F983E88306C0E8850A
S11319F0F985802F0995892B41F78E819F81019666
S1131A009F838E83C801DF91CF911F910F91089519
S1131A10FA01AA27283051F1203181F1E8946F931B
S1131A206E7F6E5F7F4F8F4F9F4FAF4FB1E03ED0C1
S1131A30B4E03CD0670F781F891F9A1FA11D680F5F
S1131A40791F8A1F911DA11D6A0F711D811D911D92
S1131A50A11D20D009F468943F912AE0269F112407
S1131A603019305D3193DEF6CF010895462F47706B
S1131A70405D4193B3E00FD0C9F7F6CF462F4F70C6
S1131A80405D4A3318F0495D31FD4052419302D024
S1131A90A9F7EACFB4E0A6959795879577956795CA
S1131AA0BA95C9F700976105710508959B01AC01CA
S1131AB00A2E06945795479537952795BA95C9F7F1
S1131AC0620F731F841F951FA01D0895F894FFCF04
S1131AD0000011022000256420252E326620252EC8
S1131AE03266005475726E656420256620646567ED
S1131AF07265657320636C6F636B776973650054FB
S1131B0075726E6564202566206465677265657309
S1131B1020636F756E746572636C6F636B77697342
S1131B2065004C6566742042756D70657220547250
S1131B3069676765726564005269676874204275F5
S1131B406D70657220547269676765726564004CD4
S1131B50696E6520446574656374656400436C69EB
S1131B6066662045646765204465746563746564CE
S1131B70004D6F7665642025662063656E74696D1B
S1091B8065746572730038
S9030000FC
